{
  "contractName": "Payroll",
  "abi": [
    {
      "constant": true,
      "inputs": [],
      "name": "owner",
      "outputs": [
        {
          "name": "",
          "type": "address"
        }
      ],
      "payable": false,
      "stateMutability": "view",
      "type": "function"
    },
    {
      "constant": true,
      "inputs": [
        {
          "name": "",
          "type": "address"
        }
      ],
      "name": "employees",
      "outputs": [
        {
          "name": "id",
          "type": "address"
        },
        {
          "name": "salary",
          "type": "uint256"
        },
        {
          "name": "lastPayday",
          "type": "uint256"
        }
      ],
      "payable": false,
      "stateMutability": "view",
      "type": "function"
    },
    {
      "constant": false,
      "inputs": [
        {
          "name": "newOwner",
          "type": "address"
        }
      ],
      "name": "transferOwnership",
      "outputs": [],
      "payable": false,
      "stateMutability": "nonpayable",
      "type": "function"
    },
    {
      "anonymous": false,
      "inputs": [
        {
          "indexed": true,
          "name": "previousOwner",
          "type": "address"
        },
        {
          "indexed": true,
          "name": "newOwner",
          "type": "address"
        }
      ],
      "name": "OwnershipTransferred",
      "type": "event"
    },
    {
      "constant": false,
      "inputs": [],
      "name": "addFund",
      "outputs": [
        {
          "name": "",
          "type": "uint256"
        }
      ],
      "payable": true,
      "stateMutability": "payable",
      "type": "function"
    },
    {
      "constant": false,
      "inputs": [
        {
          "name": "employeeId",
          "type": "address"
        },
        {
          "name": "salary",
          "type": "uint256"
        }
      ],
      "name": "addEmployee",
      "outputs": [],
      "payable": false,
      "stateMutability": "nonpayable",
      "type": "function"
    },
    {
      "constant": false,
      "inputs": [
        {
          "name": "employeeId",
          "type": "address"
        },
        {
          "name": "salary",
          "type": "uint256"
        }
      ],
      "name": "updateEmployee",
      "outputs": [],
      "payable": false,
      "stateMutability": "nonpayable",
      "type": "function"
    },
    {
      "constant": false,
      "inputs": [
        {
          "name": "employeeId",
          "type": "address"
        }
      ],
      "name": "removeEmployee",
      "outputs": [],
      "payable": false,
      "stateMutability": "nonpayable",
      "type": "function"
    },
    {
      "constant": true,
      "inputs": [],
      "name": "calculateRunway",
      "outputs": [
        {
          "name": "",
          "type": "uint256"
        }
      ],
      "payable": false,
      "stateMutability": "view",
      "type": "function"
    },
    {
      "constant": true,
      "inputs": [],
      "name": "hasEnoughFund",
      "outputs": [
        {
          "name": "",
          "type": "bool"
        }
      ],
      "payable": false,
      "stateMutability": "view",
      "type": "function"
    },
    {
      "constant": false,
      "inputs": [
        {
          "name": "employeeId",
          "type": "address"
        },
        {
          "name": "newAddress",
          "type": "address"
        }
      ],
      "name": "changePaymentAddress",
      "outputs": [],
      "payable": false,
      "stateMutability": "nonpayable",
      "type": "function"
    },
    {
      "constant": true,
      "inputs": [
        {
          "name": "employeeId",
          "type": "address"
        }
      ],
      "name": "checkEmployee",
      "outputs": [
        {
          "name": "salary",
          "type": "uint256"
        },
        {
          "name": "lastPayday",
          "type": "uint256"
        }
      ],
      "payable": false,
      "stateMutability": "view",
      "type": "function"
    },
    {
      "constant": false,
      "inputs": [],
      "name": "getPaid",
      "outputs": [],
      "payable": false,
      "stateMutability": "nonpayable",
      "type": "function"
    },
    {
      "constant": true,
      "inputs": [],
      "name": "getInfo",
      "outputs": [
        {
          "name": "balance",
          "type": "uint256"
        },
        {
          "name": "runway",
          "type": "uint256"
        },
        {
          "name": "employeeCount",
          "type": "uint256"
        }
      ],
      "payable": false,
      "stateMutability": "view",
      "type": "function"
    }
  ],
  "bytecode": "0x6060604052336000806101000a81548173ffffffffffffffffffffffffffffffffffffffff021916908373ffffffffffffffffffffffffffffffffffffffff16021790555061142f806100536000396000f3006060604052600436106100c5576000357c0100000000000000000000000000000000000000000000000000000000900463ffffffff16806323fed09e146100ca5780634ec19512146100f75780635a9b0b89146101205780635e91d8ec146101575780637cf562b7146101995780638da5cb5b146101ed578063a2f09dfa14610242578063bc456c4214610260578063cf41d6f8146102b8578063d0678947146102cd578063d108177a14610354578063e7fd9a131461038d578063f2fde38b146103cf575b600080fd5b34156100d557600080fd5b6100dd610408565b604051808215151515815260200191505060405180910390f35b341561010257600080fd5b61010a610419565b6040518082815260200191505060405180910390f35b341561012b57600080fd5b61013361044c565b60405180848152602001838152602001828152602001935050505060405180910390f35b341561016257600080fd5b610197600480803573ffffffffffffffffffffffffffffffffffffffff1690602001909190803590602001909190505061048b565b005b34156101a457600080fd5b6101d0600480803573ffffffffffffffffffffffffffffffffffffffff169060200190919050506107a7565b604051808381526020018281526020019250505060405180910390f35b34156101f857600080fd5b610200610801565b604051808273ffffffffffffffffffffffffffffffffffffffff1673ffffffffffffffffffffffffffffffffffffffff16815260200191505060405180910390f35b61024a610826565b6040518082815260200191505060405180910390f35b341561026b57600080fd5b6102b6600480803573ffffffffffffffffffffffffffffffffffffffff1690602001909190803573ffffffffffffffffffffffffffffffffffffffff16906020019091905050610845565b005b34156102c357600080fd5b6102cb610adb565b005b34156102d857600080fd5b610304600480803573ffffffffffffffffffffffffffffffffffffffff16906020019091905050610c9a565b604051808473ffffffffffffffffffffffffffffffffffffffff1673ffffffffffffffffffffffffffffffffffffffff168152602001838152602001828152602001935050505060405180910390f35b341561035f57600080fd5b61038b600480803573ffffffffffffffffffffffffffffffffffffffff16906020019091905050610ce4565b005b341561039857600080fd5b6103cd600480803573ffffffffffffffffffffffffffffffffffffffff16906020019091908035906020019091905050610f5c565b005b34156103da57600080fd5b610406600480803573ffffffffffffffffffffffffffffffffffffffff16906020019091905050611195565b005b600080610413610419565b11905090565b60006104476002543073ffffffffffffffffffffffffffffffffffffffff16316112ea90919063ffffffff16565b905090565b60008060003073ffffffffffffffffffffffffffffffffffffffff1631925060035490506000600254111561048657610483610419565b91505b909192565b60008060009054906101000a900473ffffffffffffffffffffffffffffffffffffffff1673ffffffffffffffffffffffffffffffffffffffff163373ffffffffffffffffffffffffffffffffffffffff161415156104e857600080fd5b826000600460008373ffffffffffffffffffffffffffffffffffffffff1673ffffffffffffffffffffffffffffffffffffffff1681526020019081526020016000209050600073ffffffffffffffffffffffffffffffffffffffff168160000160009054906101000a900473ffffffffffffffffffffffffffffffffffffffff1673ffffffffffffffffffffffffffffffffffffffff161415151561058957fe5b600460008673ffffffffffffffffffffffffffffffffffffffff1673ffffffffffffffffffffffffffffffffffffffff168152602001908152602001600020925061064983606060405190810160405290816000820160009054906101000a900473ffffffffffffffffffffffffffffffffffffffff1673ffffffffffffffffffffffffffffffffffffffff1673ffffffffffffffffffffffffffffffffffffffff16815260200160018201548152602001600282015481525050611305565b600460008673ffffffffffffffffffffffffffffffffffffffff1673ffffffffffffffffffffffffffffffffffffffff168152602001908152602001600020600101546002600082825403925050819055506106b6670de0b6b3a76400008561139190919063ffffffff16565b600460008773ffffffffffffffffffffffffffffffffffffffff1673ffffffffffffffffffffffffffffffffffffffff1681526020019081526020016000206001018190555042600460008773ffffffffffffffffffffffffffffffffffffffff1673ffffffffffffffffffffffffffffffffffffffff1681526020019081526020016000206002018190555061079a600460008773ffffffffffffffffffffffffffffffffffffffff1673ffffffffffffffffffffffffffffffffffffffff168152602001908152602001600020600101546002546113cc90919063ffffffff16565b6002819055505050505050565b6000806000600460008573ffffffffffffffffffffffffffffffffffffffff1673ffffffffffffffffffffffffffffffffffffffff1681526020019081526020016000209050806001015492508060020154915050915091565b6000809054906101000a900473ffffffffffffffffffffffffffffffffffffffff1681565b60003073ffffffffffffffffffffffffffffffffffffffff1631905090565b60008060009054906101000a900473ffffffffffffffffffffffffffffffffffffffff1673ffffffffffffffffffffffffffffffffffffffff163373ffffffffffffffffffffffffffffffffffffffff161415156108a257600080fd5b826000600460008373ffffffffffffffffffffffffffffffffffffffff1673ffffffffffffffffffffffffffffffffffffffff1681526020019081526020016000209050600073ffffffffffffffffffffffffffffffffffffffff168160000160009054906101000a900473ffffffffffffffffffffffffffffffffffffffff1673ffffffffffffffffffffffffffffffffffffffff161415151561094357fe5b600460008673ffffffffffffffffffffffffffffffffffffffff1673ffffffffffffffffffffffffffffffffffffffff16815260200190815260200160002092506060604051908101604052808573ffffffffffffffffffffffffffffffffffffffff168152602001846001015481526020018460020154815250600460008673ffffffffffffffffffffffffffffffffffffffff1673ffffffffffffffffffffffffffffffffffffffff16815260200190815260200160002060008201518160000160006101000a81548173ffffffffffffffffffffffffffffffffffffffff021916908373ffffffffffffffffffffffffffffffffffffffff1602179055506020820151816001015560408201518160020155905050600460008673ffffffffffffffffffffffffffffffffffffffff1673ffffffffffffffffffffffffffffffffffffffff168152602001908152602001600020600080820160006101000a81549073ffffffffffffffffffffffffffffffffffffffff02191690556001820160009055600282016000905550505050505050565b600080336000600460008373ffffffffffffffffffffffffffffffffffffffff1673ffffffffffffffffffffffffffffffffffffffff1681526020019081526020016000209050600073ffffffffffffffffffffffffffffffffffffffff168160000160009054906101000a900473ffffffffffffffffffffffffffffffffffffffff1673ffffffffffffffffffffffffffffffffffffffff1614151515610b7f57fe5b600460003373ffffffffffffffffffffffffffffffffffffffff1673ffffffffffffffffffffffffffffffffffffffff1681526020019081526020016000209350610bd8600a85600201546113cc90919063ffffffff16565b92504283101515610be557fe5b82600460003373ffffffffffffffffffffffffffffffffffffffff1673ffffffffffffffffffffffffffffffffffffffff168152602001908152602001600020600201819055508360000160009054906101000a900473ffffffffffffffffffffffffffffffffffffffff1673ffffffffffffffffffffffffffffffffffffffff166108fc85600101549081150290604051600060405180830381858888f193505050501515610c9457600080fd5b50505050565b60046020528060005260406000206000915090508060000160009054906101000a900473ffffffffffffffffffffffffffffffffffffffff16908060010154908060020154905083565b60008060009054906101000a900473ffffffffffffffffffffffffffffffffffffffff1673ffffffffffffffffffffffffffffffffffffffff163373ffffffffffffffffffffffffffffffffffffffff16141515610d4157600080fd5b816000600460008373ffffffffffffffffffffffffffffffffffffffff1673ffffffffffffffffffffffffffffffffffffffff1681526020019081526020016000209050600073ffffffffffffffffffffffffffffffffffffffff168160000160009054906101000a900473ffffffffffffffffffffffffffffffffffffffff1673ffffffffffffffffffffffffffffffffffffffff1614151515610de257fe5b600460008573ffffffffffffffffffffffffffffffffffffffff1673ffffffffffffffffffffffffffffffffffffffff1681526020019081526020016000209250610ea283606060405190810160405290816000820160009054906101000a900473ffffffffffffffffffffffffffffffffffffffff1673ffffffffffffffffffffffffffffffffffffffff1673ffffffffffffffffffffffffffffffffffffffff16815260200160018201548152602001600282015481525050611305565b600460008573ffffffffffffffffffffffffffffffffffffffff1673ffffffffffffffffffffffffffffffffffffffff168152602001908152602001600020600080820160006101000a81549073ffffffffffffffffffffffffffffffffffffffff0219169055600182016000905560028201600090555050610f3483600101546002546113ea90919063ffffffff16565b600281905550610f5060016003546113ea90919063ffffffff16565b60038190555050505050565b60008060009054906101000a900473ffffffffffffffffffffffffffffffffffffffff1673ffffffffffffffffffffffffffffffffffffffff163373ffffffffffffffffffffffffffffffffffffffff16141515610fb957600080fd5b600460008473ffffffffffffffffffffffffffffffffffffffff1673ffffffffffffffffffffffffffffffffffffffff1681526020019081526020016000209050600073ffffffffffffffffffffffffffffffffffffffff168160000160009054906101000a900473ffffffffffffffffffffffffffffffffffffffff1673ffffffffffffffffffffffffffffffffffffffff1614151561105657fe5b6060604051908101604052808473ffffffffffffffffffffffffffffffffffffffff168152602001611099670de0b6b3a76400008561139190919063ffffffff16565b815260200142815250600460008573ffffffffffffffffffffffffffffffffffffffff1673ffffffffffffffffffffffffffffffffffffffff16815260200190815260200160002060008201518160000160006101000a81548173ffffffffffffffffffffffffffffffffffffffff021916908373ffffffffffffffffffffffffffffffffffffffff160217905550602082015181600101556040820151816002015590505061116e61115d670de0b6b3a76400008461139190919063ffffffff16565b6002546113cc90919063ffffffff16565b60028190555061118a60016003546113cc90919063ffffffff16565b600381905550505050565b6000809054906101000a900473ffffffffffffffffffffffffffffffffffffffff1673ffffffffffffffffffffffffffffffffffffffff163373ffffffffffffffffffffffffffffffffffffffff161415156111f057600080fd5b600073ffffffffffffffffffffffffffffffffffffffff168173ffffffffffffffffffffffffffffffffffffffff161415151561122c57600080fd5b8073ffffffffffffffffffffffffffffffffffffffff166000809054906101000a900473ffffffffffffffffffffffffffffffffffffffff1673ffffffffffffffffffffffffffffffffffffffff167f8be0079c531659141344cd1fd0a4f28419497f9722a3daafe3b4186f6b6457e060405160405180910390a3806000806101000a81548173ffffffffffffffffffffffffffffffffffffffff021916908373ffffffffffffffffffffffffffffffffffffffff16021790555050565b60008082848115156112f857fe5b0490508091505092915050565b6000611347600a6113396113268560400151426113ea90919063ffffffff16565b856020015161139190919063ffffffff16565b6112ea90919063ffffffff16565b9050816000015173ffffffffffffffffffffffffffffffffffffffff166108fc829081150290604051600060405180830381858888f19350505050151561138d57600080fd5b5050565b60008060008414156113a657600091506113c5565b82840290508284828115156113b757fe5b041415156113c157fe5b8091505b5092915050565b60008082840190508381101515156113e057fe5b8091505092915050565b60008282111515156113f857fe5b8183039050929150505600a165627a7a72305820ded1bd51bfd63258d6a237688452d31c671f4f034aea92fa4b40091b35ec17f20029",
  "source": "pragma solidity ^0.4.18;\n\nimport './SafeMath.sol';\nimport './Ownable.sol';\n\ncontract Payroll is Ownable {\n    using SafeMath for uint;\n    uint constant paymentDuration = 10 seconds;\n    \n    struct Employee {\n        address id;\n        uint salary;\n        uint lastPayday;\n    }\n    \n    address owner;\n    uint totalSalary;\n    uint totalEmployee;\n    \n    mapping(address => Employee) public employees;\n    \n    modifier employeeExists(address employeeId) {\n        var employee = employees[employeeId];\n        assert(employee.id != address(0));\n        _;\n    }\n    \n    function _partialPaid(Employee employee) private {\n        uint payment = employee.salary\n            .mul(now.sub(employee.lastPayday))\n            .div(paymentDuration);\n        employee.id.transfer(payment);\n    }\n    \n    function addFund() public payable returns(uint) {\n        return this.balance;\n    }\n    \n    function addEmployee(address employeeId, uint salary) public onlyOwner {\n        var employee = employees[employeeId];\n        assert(employee.id == address(0));\n        employees[employeeId] = Employee(employeeId, salary.mul(1 ether), now);\n        \n        totalSalary = totalSalary.add(salary.mul(1 ether));\n        totalEmployee = totalEmployee.add(1);\n    }\n    \n    function updateEmployee(address employeeId, uint salary) public onlyOwner employeeExists(employeeId) {\n        var employee = employees[employeeId];\n        \n        _partialPaid(employee);\n        \n        totalSalary -= employees[employeeId].salary;\n        employees[employeeId].salary = salary.mul(1 ether);\n        employees[employeeId].lastPayday = now;\n        totalSalary = totalSalary.add(employees[employeeId].salary);\n    }\n    \n    function removeEmployee(address employeeId) public onlyOwner employeeExists(employeeId) {\n        var employee = employees[employeeId];\n        \n        _partialPaid(employee);\n        delete employees[employeeId];\n        totalSalary = totalSalary.sub(employee.salary);\n        totalEmployee = totalEmployee.sub(1);\n    }\n    \n    function calculateRunway() public view returns(uint) {\n        return this.balance.div(totalSalary);\n    }\n    \n    function hasEnoughFund() public view returns(bool) {\n        return calculateRunway() > 0;\n    }\n    \n    function changePaymentAddress(address employeeId, address newAddress) public onlyOwner employeeExists(employeeId) {\n        var employee = employees[employeeId];\n        employees[newAddress] = Employee(newAddress, employee.salary, employee.lastPayday);\n        delete employees[employeeId];\n    }\n    \n    function checkEmployee(address employeeId) public view returns (uint salary, uint lastPayday) {\n        var employee = employees[employeeId];\n        salary = employee.salary;\n        lastPayday = employee.lastPayday;\n    }\n    \n    function getPaid() public employeeExists(msg.sender) {\n        var employee = employees[msg.sender];\n\n        uint nextPayday = employee.lastPayday.add(paymentDuration);\n        assert(nextPayday < now);\n        \n        employees[msg.sender].lastPayday = nextPayday;\n        employee.id.transfer(employee.salary);\n    }\n\n    function getInfo() public view returns(uint balance, uint runway, uint employeeCount) {\n        balance = this.balance;\n        employeeCount = totalEmployee;\n\n        if (totalSalary > 0) {\n            runway = calculateRunway();\n        }\n    }\n}",
  "sourcePath": "/media/psf/truffle/contracts/Payroll.sol",
  "compiler": {
    "name": "solc",
    "version": "0.4.19+commit.c4cbbb05.Emscripten.clang"
  },
  "schemaVersion": "2.0.0",
  "updatedAt": "2018-03-28T12:27:10.026Z"
}