{
  "contractName": "Payroll",
  "abi": [
    {
      "constant": true,
      "inputs": [],
      "name": "owner",
      "outputs": [
        {
          "name": "",
          "type": "address"
        }
      ],
      "payable": false,
      "stateMutability": "view",
      "type": "function"
    },
    {
      "constant": true,
      "inputs": [
        {
          "name": "",
          "type": "address"
        }
      ],
      "name": "employees",
      "outputs": [
        {
          "name": "id",
          "type": "address"
        },
        {
          "name": "salary",
          "type": "uint256"
        },
        {
          "name": "lastPayday",
          "type": "uint256"
        }
      ],
      "payable": false,
      "stateMutability": "view",
      "type": "function"
    },
    {
      "constant": false,
      "inputs": [
        {
          "name": "newOwner",
          "type": "address"
        }
      ],
      "name": "transferOwnership",
      "outputs": [],
      "payable": false,
      "stateMutability": "nonpayable",
      "type": "function"
    },
    {
      "anonymous": false,
      "inputs": [
        {
          "indexed": false,
          "name": "employee",
          "type": "address"
        }
      ],
      "name": "NewEmployee",
      "type": "event"
    },
    {
      "anonymous": false,
      "inputs": [
        {
          "indexed": false,
          "name": "employee",
          "type": "address"
        }
      ],
      "name": "UpdateEmployee",
      "type": "event"
    },
    {
      "anonymous": false,
      "inputs": [
        {
          "indexed": false,
          "name": "employee",
          "type": "address"
        }
      ],
      "name": "RemoveEmployee",
      "type": "event"
    },
    {
      "anonymous": false,
      "inputs": [
        {
          "indexed": false,
          "name": "balance",
          "type": "uint256"
        }
      ],
      "name": "NewFund",
      "type": "event"
    },
    {
      "anonymous": false,
      "inputs": [
        {
          "indexed": false,
          "name": "employee",
          "type": "address"
        }
      ],
      "name": "GetPaid",
      "type": "event"
    },
    {
      "anonymous": false,
      "inputs": [
        {
          "indexed": true,
          "name": "previousOwner",
          "type": "address"
        },
        {
          "indexed": true,
          "name": "newOwner",
          "type": "address"
        }
      ],
      "name": "OwnershipTransferred",
      "type": "event"
    },
    {
      "constant": false,
      "inputs": [],
      "name": "addFund",
      "outputs": [
        {
          "name": "",
          "type": "uint256"
        }
      ],
      "payable": true,
      "stateMutability": "payable",
      "type": "function"
    },
    {
      "constant": false,
      "inputs": [
        {
          "name": "employeeId",
          "type": "address"
        },
        {
          "name": "salary",
          "type": "uint256"
        }
      ],
      "name": "addEmployee",
      "outputs": [],
      "payable": false,
      "stateMutability": "nonpayable",
      "type": "function"
    },
    {
      "constant": false,
      "inputs": [
        {
          "name": "employeeId",
          "type": "address"
        },
        {
          "name": "salary",
          "type": "uint256"
        }
      ],
      "name": "updateEmployee",
      "outputs": [],
      "payable": false,
      "stateMutability": "nonpayable",
      "type": "function"
    },
    {
      "constant": false,
      "inputs": [
        {
          "name": "employeeId",
          "type": "address"
        }
      ],
      "name": "removeEmployee",
      "outputs": [],
      "payable": false,
      "stateMutability": "nonpayable",
      "type": "function"
    },
    {
      "constant": true,
      "inputs": [],
      "name": "calculateRunway",
      "outputs": [
        {
          "name": "",
          "type": "uint256"
        }
      ],
      "payable": false,
      "stateMutability": "view",
      "type": "function"
    },
    {
      "constant": true,
      "inputs": [],
      "name": "hasEnoughFund",
      "outputs": [
        {
          "name": "",
          "type": "bool"
        }
      ],
      "payable": false,
      "stateMutability": "view",
      "type": "function"
    },
    {
      "constant": false,
      "inputs": [
        {
          "name": "employeeId",
          "type": "address"
        },
        {
          "name": "newAddress",
          "type": "address"
        }
      ],
      "name": "changePaymentAddress",
      "outputs": [],
      "payable": false,
      "stateMutability": "nonpayable",
      "type": "function"
    },
    {
      "constant": true,
      "inputs": [
        {
          "name": "employeeId",
          "type": "address"
        }
      ],
      "name": "checkEmployee",
      "outputs": [
        {
          "name": "salary",
          "type": "uint256"
        },
        {
          "name": "lastPayday",
          "type": "uint256"
        }
      ],
      "payable": false,
      "stateMutability": "view",
      "type": "function"
    },
    {
      "constant": true,
      "inputs": [
        {
          "name": "index",
          "type": "uint256"
        }
      ],
      "name": "checkEmployee",
      "outputs": [
        {
          "name": "employeeId",
          "type": "address"
        },
        {
          "name": "salary",
          "type": "uint256"
        },
        {
          "name": "lastPayday",
          "type": "uint256"
        }
      ],
      "payable": false,
      "stateMutability": "view",
      "type": "function"
    },
    {
      "constant": false,
      "inputs": [],
      "name": "getPaid",
      "outputs": [],
      "payable": false,
      "stateMutability": "nonpayable",
      "type": "function"
    },
    {
      "constant": true,
      "inputs": [],
      "name": "getInfo",
      "outputs": [
        {
          "name": "balance",
          "type": "uint256"
        },
        {
          "name": "runway",
          "type": "uint256"
        },
        {
          "name": "employeeCount",
          "type": "uint256"
        }
      ],
      "payable": false,
      "stateMutability": "view",
      "type": "function"
    }
  ],
  "bytecode": "0x6060604052336000806101000a81548173ffffffffffffffffffffffffffffffffffffffff021916908373ffffffffffffffffffffffffffffffffffffffff1602179055506117f7806100536000396000f3006060604052600436106100d0576000357c0100000000000000000000000000000000000000000000000000000000900463ffffffff16806323fed09e146100d55780634ec19512146101025780635a9b0b891461012b5780635e91d8ec146101625780637cf562b7146101a45780638da5cb5b146101f857806396b026961461024d578063a2f09dfa146102be578063bc456c42146102dc578063cf41d6f814610334578063d067894714610349578063d108177a146103d0578063e7fd9a1314610409578063f2fde38b1461044b575b600080fd5b34156100e057600080fd5b6100e8610484565b604051808215151515815260200191505060405180910390f35b341561010d57600080fd5b610115610495565b6040518082815260200191505060405180910390f35b341561013657600080fd5b61013e6104c8565b60405180848152602001838152602001828152602001935050505060405180910390f35b341561016d57600080fd5b6101a2600480803573ffffffffffffffffffffffffffffffffffffffff16906020019091908035906020019091905050610507565b005b34156101af57600080fd5b6101db600480803573ffffffffffffffffffffffffffffffffffffffff16906020019091905050610886565b604051808381526020018281526020019250505060405180910390f35b341561020357600080fd5b61020b6108e0565b604051808273ffffffffffffffffffffffffffffffffffffffff1673ffffffffffffffffffffffffffffffffffffffff16815260200191505060405180910390f35b341561025857600080fd5b61026e6004808035906020019091905050610905565b604051808473ffffffffffffffffffffffffffffffffffffffff1673ffffffffffffffffffffffffffffffffffffffff168152602001838152602001828152602001935050505060405180910390f35b6102c661099f565b6040518082815260200191505060405180910390f35b34156102e757600080fd5b610332600480803573ffffffffffffffffffffffffffffffffffffffff1690602001909190803573ffffffffffffffffffffffffffffffffffffffff16906020019091905050610a0c565b005b341561033f57600080fd5b610347610ca2565b005b341561035457600080fd5b610380600480803573ffffffffffffffffffffffffffffffffffffffff16906020019091905050610ee8565b604051808473ffffffffffffffffffffffffffffffffffffffff1673ffffffffffffffffffffffffffffffffffffffff168152602001838152602001828152602001935050505060405180910390f35b34156103db57600080fd5b610407600480803573ffffffffffffffffffffffffffffffffffffffff16906020019091905050610f32565b005b341561041457600080fd5b610449600480803573ffffffffffffffffffffffffffffffffffffffff1690602001909190803590602001909190505061120d565b005b341561045657600080fd5b610482600480803573ffffffffffffffffffffffffffffffffffffffff1690602001909190505061150c565b005b60008061048f610495565b11905090565b60006104c36002543073ffffffffffffffffffffffffffffffffffffffff163161166190919063ffffffff16565b905090565b60008060003073ffffffffffffffffffffffffffffffffffffffff16319250600354905060006002541115610502576104ff610495565b91505b909192565b60008060009054906101000a900473ffffffffffffffffffffffffffffffffffffffff1673ffffffffffffffffffffffffffffffffffffffff163373ffffffffffffffffffffffffffffffffffffffff1614151561056457600080fd5b826000600560008373ffffffffffffffffffffffffffffffffffffffff1673ffffffffffffffffffffffffffffffffffffffff1681526020019081526020016000209050600073ffffffffffffffffffffffffffffffffffffffff168160000160009054906101000a900473ffffffffffffffffffffffffffffffffffffffff1673ffffffffffffffffffffffffffffffffffffffff161415151561060557fe5b600560008673ffffffffffffffffffffffffffffffffffffffff1673ffffffffffffffffffffffffffffffffffffffff16815260200190815260200160002092506106c583606060405190810160405290816000820160009054906101000a900473ffffffffffffffffffffffffffffffffffffffff1673ffffffffffffffffffffffffffffffffffffffff1673ffffffffffffffffffffffffffffffffffffffff1681526020016001820154815260200160028201548152505061167c565b600560008673ffffffffffffffffffffffffffffffffffffffff1673ffffffffffffffffffffffffffffffffffffffff16815260200190815260200160002060010154600260008282540392505081905550610732670de0b6b3a76400008561170890919063ffffffff16565b600560008773ffffffffffffffffffffffffffffffffffffffff1673ffffffffffffffffffffffffffffffffffffffff1681526020019081526020016000206001018190555042600560008773ffffffffffffffffffffffffffffffffffffffff1673ffffffffffffffffffffffffffffffffffffffff16815260200190815260200160002060020181905550610816600560008773ffffffffffffffffffffffffffffffffffffffff1673ffffffffffffffffffffffffffffffffffffffff1681526020019081526020016000206001015460025461174390919063ffffffff16565b6002819055507f488bacda22fcd72c26e796890d62491cef03e8de61cad515b1826a683f2e760f85604051808273ffffffffffffffffffffffffffffffffffffffff1673ffffffffffffffffffffffffffffffffffffffff16815260200191505060405180910390a15050505050565b6000806000600560008573ffffffffffffffffffffffffffffffffffffffff1673ffffffffffffffffffffffffffffffffffffffff1681526020019081526020016000209050806001015492508060020154915050915091565b6000809054906101000a900473ffffffffffffffffffffffffffffffffffffffff1681565b60008060008060048581548110151561091a57fe5b906000526020600020900160009054906101000a900473ffffffffffffffffffffffffffffffffffffffff169350600560008573ffffffffffffffffffffffffffffffffffffffff1673ffffffffffffffffffffffffffffffffffffffff16815260200190815260200160002090508060010154925080600201549150509193909250565b60007fbe1e4b1ad5d83f75925e2f00ab046fbab2ee90d0dbdf7f2049d037a48ada09f33073ffffffffffffffffffffffffffffffffffffffff16316040518082815260200191505060405180910390a13073ffffffffffffffffffffffffffffffffffffffff1631905090565b60008060009054906101000a900473ffffffffffffffffffffffffffffffffffffffff1673ffffffffffffffffffffffffffffffffffffffff163373ffffffffffffffffffffffffffffffffffffffff16141515610a6957600080fd5b826000600560008373ffffffffffffffffffffffffffffffffffffffff1673ffffffffffffffffffffffffffffffffffffffff1681526020019081526020016000209050600073ffffffffffffffffffffffffffffffffffffffff168160000160009054906101000a900473ffffffffffffffffffffffffffffffffffffffff1673ffffffffffffffffffffffffffffffffffffffff1614151515610b0a57fe5b600560008673ffffffffffffffffffffffffffffffffffffffff1673ffffffffffffffffffffffffffffffffffffffff16815260200190815260200160002092506060604051908101604052808573ffffffffffffffffffffffffffffffffffffffff168152602001846001015481526020018460020154815250600560008673ffffffffffffffffffffffffffffffffffffffff1673ffffffffffffffffffffffffffffffffffffffff16815260200190815260200160002060008201518160000160006101000a81548173ffffffffffffffffffffffffffffffffffffffff021916908373ffffffffffffffffffffffffffffffffffffffff1602179055506020820151816001015560408201518160020155905050600560008673ffffffffffffffffffffffffffffffffffffffff1673ffffffffffffffffffffffffffffffffffffffff168152602001908152602001600020600080820160006101000a81549073ffffffffffffffffffffffffffffffffffffffff02191690556001820160009055600282016000905550505050505050565b600080336000600560008373ffffffffffffffffffffffffffffffffffffffff1673ffffffffffffffffffffffffffffffffffffffff1681526020019081526020016000209050600073ffffffffffffffffffffffffffffffffffffffff168160000160009054906101000a900473ffffffffffffffffffffffffffffffffffffffff1673ffffffffffffffffffffffffffffffffffffffff1614151515610d4657fe5b600560003373ffffffffffffffffffffffffffffffffffffffff1673ffffffffffffffffffffffffffffffffffffffff1681526020019081526020016000209350610d9f600a856002015461174390919063ffffffff16565b92504283101515610dac57fe5b82600560003373ffffffffffffffffffffffffffffffffffffffff1673ffffffffffffffffffffffffffffffffffffffff168152602001908152602001600020600201819055508360000160009054906101000a900473ffffffffffffffffffffffffffffffffffffffff1673ffffffffffffffffffffffffffffffffffffffff166108fc85600101549081150290604051600060405180830381858888f193505050501515610e5b57600080fd5b7f7decdec0fa70b21ecd45a15b04d5f5313c8fc915a1b3c034aa2bffa4fc8fc5918460000160009054906101000a900473ffffffffffffffffffffffffffffffffffffffff16604051808273ffffffffffffffffffffffffffffffffffffffff1673ffffffffffffffffffffffffffffffffffffffff16815260200191505060405180910390a150505050565b60056020528060005260406000206000915090508060000160009054906101000a900473ffffffffffffffffffffffffffffffffffffffff16908060010154908060020154905083565b60008060009054906101000a900473ffffffffffffffffffffffffffffffffffffffff1673ffffffffffffffffffffffffffffffffffffffff163373ffffffffffffffffffffffffffffffffffffffff16141515610f8f57600080fd5b816000600560008373ffffffffffffffffffffffffffffffffffffffff1673ffffffffffffffffffffffffffffffffffffffff1681526020019081526020016000209050600073ffffffffffffffffffffffffffffffffffffffff168160000160009054906101000a900473ffffffffffffffffffffffffffffffffffffffff1673ffffffffffffffffffffffffffffffffffffffff161415151561103057fe5b600560008573ffffffffffffffffffffffffffffffffffffffff1673ffffffffffffffffffffffffffffffffffffffff16815260200190815260200160002092506110f083606060405190810160405290816000820160009054906101000a900473ffffffffffffffffffffffffffffffffffffffff1673ffffffffffffffffffffffffffffffffffffffff1673ffffffffffffffffffffffffffffffffffffffff1681526020016001820154815260200160028201548152505061167c565b600560008573ffffffffffffffffffffffffffffffffffffffff1673ffffffffffffffffffffffffffffffffffffffff168152602001908152602001600020600080820160006101000a81549073ffffffffffffffffffffffffffffffffffffffff0219169055600182016000905560028201600090555050611182836001015460025461176190919063ffffffff16565b60028190555061119e600160035461176190919063ffffffff16565b6003819055507f52d6abdca596d1c4a93f3df131dcf3a55ecaaa92ab3a0be58a15b98aab12d49b84604051808273ffffffffffffffffffffffffffffffffffffffff1673ffffffffffffffffffffffffffffffffffffffff16815260200191505060405180910390a150505050565b60008060009054906101000a900473ffffffffffffffffffffffffffffffffffffffff1673ffffffffffffffffffffffffffffffffffffffff163373ffffffffffffffffffffffffffffffffffffffff1614151561126a57600080fd5b600560008473ffffffffffffffffffffffffffffffffffffffff1673ffffffffffffffffffffffffffffffffffffffff1681526020019081526020016000209050600073ffffffffffffffffffffffffffffffffffffffff168160000160009054906101000a900473ffffffffffffffffffffffffffffffffffffffff1673ffffffffffffffffffffffffffffffffffffffff1614151561130757fe5b6060604051908101604052808473ffffffffffffffffffffffffffffffffffffffff16815260200161134a670de0b6b3a76400008561170890919063ffffffff16565b815260200142815250600560008573ffffffffffffffffffffffffffffffffffffffff1673ffffffffffffffffffffffffffffffffffffffff16815260200190815260200160002060008201518160000160006101000a81548173ffffffffffffffffffffffffffffffffffffffff021916908373ffffffffffffffffffffffffffffffffffffffff160217905550602082015181600101556040820151816002015590505061141f61140e670de0b6b3a76400008461170890919063ffffffff16565b60025461174390919063ffffffff16565b60028190555061143b600160035461174390919063ffffffff16565b60038190555060048054806001018281611455919061177a565b9160005260206000209001600085909190916101000a81548173ffffffffffffffffffffffffffffffffffffffff021916908373ffffffffffffffffffffffffffffffffffffffff160217905550507f37e9308d0d750d43a2e5ef16b6d47b60b2741e12be41128ca3bec877db4f9dcb83604051808273ffffffffffffffffffffffffffffffffffffffff1673ffffffffffffffffffffffffffffffffffffffff16815260200191505060405180910390a1505050565b6000809054906101000a900473ffffffffffffffffffffffffffffffffffffffff1673ffffffffffffffffffffffffffffffffffffffff163373ffffffffffffffffffffffffffffffffffffffff1614151561156757600080fd5b600073ffffffffffffffffffffffffffffffffffffffff168173ffffffffffffffffffffffffffffffffffffffff16141515156115a357600080fd5b8073ffffffffffffffffffffffffffffffffffffffff166000809054906101000a900473ffffffffffffffffffffffffffffffffffffffff1673ffffffffffffffffffffffffffffffffffffffff167f8be0079c531659141344cd1fd0a4f28419497f9722a3daafe3b4186f6b6457e060405160405180910390a3806000806101000a81548173ffffffffffffffffffffffffffffffffffffffff021916908373ffffffffffffffffffffffffffffffffffffffff16021790555050565b600080828481151561166f57fe5b0490508091505092915050565b60006116be600a6116b061169d85604001514261176190919063ffffffff16565b856020015161170890919063ffffffff16565b61166190919063ffffffff16565b9050816000015173ffffffffffffffffffffffffffffffffffffffff166108fc829081150290604051600060405180830381858888f19350505050151561170457600080fd5b5050565b600080600084141561171d576000915061173c565b828402905082848281151561172e57fe5b0414151561173857fe5b8091505b5092915050565b600080828401905083811015151561175757fe5b8091505092915050565b600082821115151561176f57fe5b818303905092915050565b8154818355818115116117a1578183600052602060002091820191016117a091906117a6565b5b505050565b6117c891905b808211156117c45760008160009055506001016117ac565b5090565b905600a165627a7a72305820ee196d9f712fd5926c129e776d2de587c0e8e2a6ee7e641566d40ff85dfc827c0029",
  "source": "pragma solidity ^0.4.18;\n\nimport './SafeMath.sol';\nimport './Ownable.sol';\n\ncontract Payroll is Ownable {\n    using SafeMath for uint;\n    uint constant paymentDuration = 10 seconds;\n    \n    struct Employee {\n        address id;\n        uint salary;\n        uint lastPayday;\n    }\n    \n    address owner;\n    uint totalSalary;\n    uint totalEmployee;\n    address[] employeeList;\n    mapping(address => Employee) public employees;\n\n    event NewEmployee(\n        address employee\n    );\n    event UpdateEmployee(\n        address employee\n    );\n    event RemoveEmployee(\n        address employee\n    );\n    event NewFund(\n        uint balance\n    );\n    event GetPaid(\n        address employee\n    );\n    \n    modifier employeeExists(address employeeId) {\n        Employee  employee = employees[employeeId];\n        assert(employee.id != address(0));\n        _;\n    }\n    \n    function _partialPaid(Employee employee) private {\n        uint payment = employee.salary\n            .mul(now.sub(employee.lastPayday))\n            .div(paymentDuration);\n        employee.id.transfer(payment);\n    }\n    \n    function addFund() public payable returns(uint) {\n        NewFund(this.balance);\n        return this.balance;\n    }\n\n    function checkEmployee(uint index) public view returns (address employeeId, uint salary, uint lastPayday) {\n        employeeId = employeeList[index];\n        Employee  employee = employees[employeeId];\n        salary = employee.salary;\n        lastPayday = employee.lastPayday;\n    }\n    \n    function addEmployee(address employeeId, uint salary) public onlyOwner {\n        Employee  employee = employees[employeeId];\n        assert(employee.id == address(0));\n        employees[employeeId] = Employee(employeeId, salary.mul(1 ether), now);\n        \n        totalSalary = totalSalary.add(salary.mul(1 ether));\n        totalEmployee = totalEmployee.add(1);\n        employeeList.push(employeeId);\n        NewEmployee(employeeId);\n    }\n    \n    function updateEmployee(address employeeId, uint salary) public onlyOwner employeeExists(employeeId) {\n        Employee  employee = employees[employeeId];\n        \n        _partialPaid(employee);\n        \n        totalSalary -= employees[employeeId].salary;\n        employees[employeeId].salary = salary.mul(1 ether);\n        employees[employeeId].lastPayday = now;\n        totalSalary = totalSalary.add(employees[employeeId].salary);\n        UpdateEmployee(employeeId);\n    }\n    \n    function removeEmployee(address employeeId) public onlyOwner employeeExists(employeeId) {\n        Employee  employee = employees[employeeId];\n        \n        _partialPaid(employee);\n        delete employees[employeeId];\n        totalSalary = totalSalary.sub(employee.salary);\n        totalEmployee = totalEmployee.sub(1);\n        RemoveEmployee(employeeId);\n    }\n    \n    function calculateRunway() public view returns(uint) {\n        return this.balance.div(totalSalary);\n    }\n    \n    function hasEnoughFund() public view returns(bool) {\n        return calculateRunway() > 0;\n    }\n    \n    function changePaymentAddress(address employeeId, address newAddress) public onlyOwner employeeExists(employeeId) {\n        Employee  employee = employees[employeeId];\n        employees[newAddress] = Employee(newAddress, employee.salary, employee.lastPayday);\n        delete employees[employeeId];\n    }\n    \n    function checkEmployee(address employeeId) public view returns (uint salary, uint lastPayday) {\n        Employee  employee = employees[employeeId];\n        salary = employee.salary;\n        lastPayday = employee.lastPayday;\n    }\n    \n    function getPaid() public employeeExists(msg.sender) {\n        Employee  employee = employees[msg.sender];\n\n        uint nextPayday = employee.lastPayday.add(paymentDuration);\n        assert(nextPayday < now);\n        \n        employees[msg.sender].lastPayday = nextPayday;\n        employee.id.transfer(employee.salary);\n        GetPaid(employee.id);\n    }\n\n    function getInfo() public view returns(uint balance, uint runway, uint employeeCount) {\n        balance = this.balance;\n        employeeCount = totalEmployee;\n\n        if (totalSalary > 0) {\n            runway = calculateRunway();\n        }\n    }\n}",
  "sourcePath": "/media/psf/truffle/contracts/Payroll.sol",
  "compiler": {
    "name": "solc",
    "version": "0.4.21+commit.dfe3193c.Emscripten.clang"
  },
  "schemaVersion": "2.0.0",
  "updatedAt": "2018-03-31T18:02:49.334Z"
}