{
  "contractName": "PayRoll",
  "abi": [
    {
      "constant": true,
      "inputs": [],
      "name": "owner",
      "outputs": [
        {
          "name": "",
          "type": "address"
        }
      ],
      "payable": false,
      "stateMutability": "view",
      "type": "function"
    },
    {
      "constant": true,
      "inputs": [
        {
          "name": "",
          "type": "address"
        }
      ],
      "name": "employees",
      "outputs": [
        {
          "name": "id",
          "type": "address"
        },
        {
          "name": "salary",
          "type": "uint256"
        },
        {
          "name": "lastPayDay",
          "type": "uint256"
        }
      ],
      "payable": false,
      "stateMutability": "view",
      "type": "function"
    },
    {
      "constant": false,
      "inputs": [
        {
          "name": "newOwner",
          "type": "address"
        }
      ],
      "name": "transferOwnership",
      "outputs": [],
      "payable": false,
      "stateMutability": "nonpayable",
      "type": "function"
    },
    {
      "anonymous": false,
      "inputs": [
        {
          "indexed": false,
          "name": "employee",
          "type": "address"
        }
      ],
      "name": "NewEmployee",
      "type": "event"
    },
    {
      "anonymous": false,
      "inputs": [
        {
          "indexed": false,
          "name": "employee",
          "type": "address"
        }
      ],
      "name": "UpdateEmployee",
      "type": "event"
    },
    {
      "anonymous": false,
      "inputs": [
        {
          "indexed": false,
          "name": "employee",
          "type": "address"
        }
      ],
      "name": "RemoveEmployee",
      "type": "event"
    },
    {
      "anonymous": false,
      "inputs": [
        {
          "indexed": false,
          "name": "balance",
          "type": "uint256"
        }
      ],
      "name": "NewFund",
      "type": "event"
    },
    {
      "anonymous": false,
      "inputs": [
        {
          "indexed": true,
          "name": "previousOwner",
          "type": "address"
        },
        {
          "indexed": true,
          "name": "newOwner",
          "type": "address"
        }
      ],
      "name": "OwnershipTransferred",
      "type": "event"
    },
    {
      "constant": false,
      "inputs": [],
      "name": "addFund",
      "outputs": [
        {
          "name": "",
          "type": "uint256"
        }
      ],
      "payable": true,
      "stateMutability": "payable",
      "type": "function"
    },
    {
      "constant": false,
      "inputs": [
        {
          "name": "employeeId",
          "type": "address"
        },
        {
          "name": "money",
          "type": "uint256"
        }
      ],
      "name": "addEmployee",
      "outputs": [],
      "payable": false,
      "stateMutability": "nonpayable",
      "type": "function"
    },
    {
      "constant": false,
      "inputs": [
        {
          "name": "employeeId",
          "type": "address"
        }
      ],
      "name": "_checkEmployee",
      "outputs": [
        {
          "name": "salary",
          "type": "uint256"
        },
        {
          "name": "lastPayday",
          "type": "uint256"
        }
      ],
      "payable": false,
      "stateMutability": "nonpayable",
      "type": "function"
    },
    {
      "constant": false,
      "inputs": [
        {
          "name": "index",
          "type": "uint256"
        }
      ],
      "name": "checkEmployee",
      "outputs": [
        {
          "name": "employeeId",
          "type": "address"
        },
        {
          "name": "salary",
          "type": "uint256"
        },
        {
          "name": "lastPayday",
          "type": "uint256"
        }
      ],
      "payable": false,
      "stateMutability": "nonpayable",
      "type": "function"
    },
    {
      "constant": false,
      "inputs": [
        {
          "name": "oldEmployeeId",
          "type": "address"
        },
        {
          "name": "newEmployeeId",
          "type": "address"
        }
      ],
      "name": "changePaymentAddress",
      "outputs": [],
      "payable": false,
      "stateMutability": "nonpayable",
      "type": "function"
    },
    {
      "constant": false,
      "inputs": [
        {
          "name": "employeeId",
          "type": "address"
        }
      ],
      "name": "removeEmployee",
      "outputs": [],
      "payable": false,
      "stateMutability": "nonpayable",
      "type": "function"
    },
    {
      "constant": false,
      "inputs": [
        {
          "name": "employeeId",
          "type": "address"
        },
        {
          "name": "salary",
          "type": "uint256"
        }
      ],
      "name": "updateEmployee",
      "outputs": [],
      "payable": false,
      "stateMutability": "nonpayable",
      "type": "function"
    },
    {
      "constant": false,
      "inputs": [],
      "name": "calculateRunaway",
      "outputs": [
        {
          "name": "",
          "type": "uint256"
        }
      ],
      "payable": false,
      "stateMutability": "nonpayable",
      "type": "function"
    },
    {
      "constant": false,
      "inputs": [],
      "name": "hasEnoughFund",
      "outputs": [
        {
          "name": "",
          "type": "bool"
        }
      ],
      "payable": false,
      "stateMutability": "nonpayable",
      "type": "function"
    },
    {
      "constant": true,
      "inputs": [],
      "name": "getPaid",
      "outputs": [
        {
          "name": "",
          "type": "uint256"
        }
      ],
      "payable": false,
      "stateMutability": "view",
      "type": "function"
    },
    {
      "constant": false,
      "inputs": [],
      "name": "getInfo",
      "outputs": [
        {
          "name": "balance",
          "type": "uint256"
        },
        {
          "name": "runway",
          "type": "uint256"
        },
        {
          "name": "employeeCount",
          "type": "uint256"
        }
      ],
      "payable": false,
      "stateMutability": "nonpayable",
      "type": "function"
    },
    {
      "constant": false,
      "inputs": [],
      "name": "checkInfo",
      "outputs": [
        {
          "name": "balance",
          "type": "uint256"
        },
        {
          "name": "runway",
          "type": "uint256"
        },
        {
          "name": "employeeCount",
          "type": "uint256"
        }
      ],
      "payable": false,
      "stateMutability": "nonpayable",
      "type": "function"
    }
  ],
  "bytecode": "0x606060405260006003556000600455336000806101000a81548173ffffffffffffffffffffffffffffffffffffffff021916908373ffffffffffffffffffffffffffffffffffffffff1602179055506116fe8061005d6000396000f3006060604052600436106100db576000357c0100000000000000000000000000000000000000000000000000000000900463ffffffff1680630ef76b35146100e057806323fed09e146101095780635a9b0b89146101365780635e91d8ec1461016d57806385a96258146101af5780638da5cb5b146101e657806396b026961461023b578063a2f09dfa146102ac578063bc456c42146102ca578063cf41d6f814610322578063d06789471461034b578063d108177a146103d2578063e607f7e51461040b578063e7fd9a131461045f578063f2fde38b146104a1575b600080fd5b34156100eb57600080fd5b6100f36104da565b6040518082815260200191505060405180910390f35b341561011457600080fd5b61011c61051f565b604051808215151515815260200191505060405180910390f35b341561014157600080fd5b610149610530565b60405180848152602001838152602001828152602001935050505060405180910390f35b341561017857600080fd5b6101ad600480803573ffffffffffffffffffffffffffffffffffffffff16906020019091908035906020019091905050610563565b005b34156101ba57600080fd5b6101c26107cd565b60405180848152602001838152602001828152602001935050505060405180910390f35b34156101f157600080fd5b6101f961080c565b604051808273ffffffffffffffffffffffffffffffffffffffff1673ffffffffffffffffffffffffffffffffffffffff16815260200191505060405180910390f35b341561024657600080fd5b61025c6004808035906020019091905050610831565b604051808473ffffffffffffffffffffffffffffffffffffffff1673ffffffffffffffffffffffffffffffffffffffff168152602001838152602001828152602001935050505060405180910390f35b6102b46108b5565b6040518082815260200191505060405180910390f35b34156102d557600080fd5b610320600480803573ffffffffffffffffffffffffffffffffffffffff1690602001909190803573ffffffffffffffffffffffffffffffffffffffff16906020019091905050610922565b005b341561032d57600080fd5b610335610a51565b6040518082815260200191505060405180910390f35b341561035657600080fd5b610382600480803573ffffffffffffffffffffffffffffffffffffffff16906020019091905050610bcb565b604051808473ffffffffffffffffffffffffffffffffffffffff1673ffffffffffffffffffffffffffffffffffffffff168152602001838152602001828152602001935050505060405180910390f35b34156103dd57600080fd5b610409600480803573ffffffffffffffffffffffffffffffffffffffff16906020019091905050610c15565b005b341561041657600080fd5b610442600480803573ffffffffffffffffffffffffffffffffffffffff16906020019091905050610fea565b604051808381526020018281526020019250505060405180910390f35b341561046a57600080fd5b61049f600480803573ffffffffffffffffffffffffffffffffffffffff16906020019091908035906020019091905050611044565b005b34156104ac57600080fd5b6104d8600480803573ffffffffffffffffffffffffffffffffffffffff16906020019091905050611318565b005b600061051a6000600354146104f1576003546104f4565b60015b3073ffffffffffffffffffffffffffffffffffffffff163161146d90919063ffffffff16565b905090565b60008061052a6104da565b11905090565b60008060003073ffffffffffffffffffffffffffffffffffffffff163192506105576104da565b91506004549050909192565b60008060008060009054906101000a900473ffffffffffffffffffffffffffffffffffffffff1673ffffffffffffffffffffffffffffffffffffffff163373ffffffffffffffffffffffffffffffffffffffff161415156105c357600080fd5b846000600160008373ffffffffffffffffffffffffffffffffffffffff1673ffffffffffffffffffffffffffffffffffffffff168152602001908152602001600020905060008160000160009054906101000a900473ffffffffffffffffffffffffffffffffffffffff1673ffffffffffffffffffffffffffffffffffffffff161415151561064e57fe5b600160008873ffffffffffffffffffffffffffffffffffffffff1673ffffffffffffffffffffffffffffffffffffffff168152602001908152602001600020945061070e85606060405190810160405290816000820160009054906101000a900473ffffffffffffffffffffffffffffffffffffffff1673ffffffffffffffffffffffffffffffffffffffff1673ffffffffffffffffffffffffffffffffffffffff16815260200160018201548152602001600282015481525050611488565b670de0b6b3a7640000860293508460010154925083856001018190555042856002018190555061075b8461074d856003546114f790919063ffffffff16565b61151090919063ffffffff16565b6003819055507f488bacda22fcd72c26e796890d62491cef03e8de61cad515b1826a683f2e760f87604051808273ffffffffffffffffffffffffffffffffffffffff1673ffffffffffffffffffffffffffffffffffffffff16815260200191505060405180910390a150505050505050565b60008060003073ffffffffffffffffffffffffffffffffffffffff16319250600454905060006003541115610807576108046104da565b91505b909192565b6000809054906101000a900473ffffffffffffffffffffffffffffffffffffffff1681565b60008060008084108061084957506002805490508410155b1561085f576000925060009150600090506108ae565b60028481548110151561086e57fe5b906000526020600020900160009054906101000a900473ffffffffffffffffffffffffffffffffffffffff1692506108a583610fea565b80925081935050505b9193909250565b60007fbe1e4b1ad5d83f75925e2f00ab046fbab2ee90d0dbdf7f2049d037a48ada09f33073ffffffffffffffffffffffffffffffffffffffff16316040518082815260200191505060405180910390a13073ffffffffffffffffffffffffffffffffffffffff1631905090565b6000806000806000809054906101000a900473ffffffffffffffffffffffffffffffffffffffff1673ffffffffffffffffffffffffffffffffffffffff163373ffffffffffffffffffffffffffffffffffffffff1614151561098357600080fd5b856000600160008373ffffffffffffffffffffffffffffffffffffffff1673ffffffffffffffffffffffffffffffffffffffff168152602001908152602001600020905060008160000160009054906101000a900473ffffffffffffffffffffffffffffffffffffffff1673ffffffffffffffffffffffffffffffffffffffff1614151515610a0e57fe5b610a1788610fea565b95509550610a2487610fea565b93509350600084141515610a3457fe5b610a3d88610c15565b610a478787611044565b5050505050505050565b600080600080336000600160008373ffffffffffffffffffffffffffffffffffffffff1673ffffffffffffffffffffffffffffffffffffffff168152602001908152602001600020905060008160000160009054906101000a900473ffffffffffffffffffffffffffffffffffffffff1673ffffffffffffffffffffffffffffffffffffffff1614151515610ae257fe5b339450600160008673ffffffffffffffffffffffffffffffffffffffff1673ffffffffffffffffffffffffffffffffffffffff1681526020019081526020016000209350610b3e600a856002015461151090919063ffffffff16565b92504283101515610b4b57fe5b8284600201819055508360000160009054906101000a900473ffffffffffffffffffffffffffffffffffffffff1673ffffffffffffffffffffffffffffffffffffffff166108fc85600101549081150290604051600060405180830381858888f193505050501515610bbc57600080fd5b83600101549550505050505090565b60016020528060005260406000206000915090508060000160009054906101000a900473ffffffffffffffffffffffffffffffffffffffff16908060010154908060020154905083565b60008060008060009054906101000a900473ffffffffffffffffffffffffffffffffffffffff1673ffffffffffffffffffffffffffffffffffffffff163373ffffffffffffffffffffffffffffffffffffffff16141515610c7557600080fd5b836000600160008373ffffffffffffffffffffffffffffffffffffffff1673ffffffffffffffffffffffffffffffffffffffff168152602001908152602001600020905060008160000160009054906101000a900473ffffffffffffffffffffffffffffffffffffffff1673ffffffffffffffffffffffffffffffffffffffff1614151515610d0057fe5b600160008773ffffffffffffffffffffffffffffffffffffffff1673ffffffffffffffffffffffffffffffffffffffff1681526020019081526020016000209450610dc085606060405190810160405290816000820160009054906101000a900473ffffffffffffffffffffffffffffffffffffffff1673ffffffffffffffffffffffffffffffffffffffff1673ffffffffffffffffffffffffffffffffffffffff16815260200160018201548152602001600282015481525050611488565b600160008773ffffffffffffffffffffffffffffffffffffffff1673ffffffffffffffffffffffffffffffffffffffff168152602001908152602001600020600080820160006101000a81549073ffffffffffffffffffffffffffffffffffffffff0219169055600182016000905560028201600090555050610e5285600101546003546114f790919063ffffffff16565b600381905550610e6e60016004546114f790919063ffffffff16565b600481905550610e7d8661152e565b9350935060008310151515610e8e57fe5b600283815481101515610e9d57fe5b906000526020600020900160006101000a81549073ffffffffffffffffffffffffffffffffffffffff02191690556002600160028054905003815481101515610ee257fe5b906000526020600020900160009054906101000a900473ffffffffffffffffffffffffffffffffffffffff16600284815481101515610f1d57fe5b906000526020600020900160006101000a81548173ffffffffffffffffffffffffffffffffffffffff021916908373ffffffffffffffffffffffffffffffffffffffff1602179055506001600281818054905003915081610f7e9190611655565b507f52d6abdca596d1c4a93f3df131dcf3a55ecaaa92ab3a0be58a15b98aab12d49b86604051808273ffffffffffffffffffffffffffffffffffffffff1673ffffffffffffffffffffffffffffffffffffffff16815260200191505060405180910390a1505050505050565b6000806000600160008573ffffffffffffffffffffffffffffffffffffffff1673ffffffffffffffffffffffffffffffffffffffff1681526020019081526020016000209050806001015492508060020154915050915091565b6000806000809054906101000a900473ffffffffffffffffffffffffffffffffffffffff1673ffffffffffffffffffffffffffffffffffffffff163373ffffffffffffffffffffffffffffffffffffffff161415156110a257600080fd5b600160008573ffffffffffffffffffffffffffffffffffffffff1673ffffffffffffffffffffffffffffffffffffffff168152602001908152602001600020915060008260000160009054906101000a900473ffffffffffffffffffffffffffffffffffffffff1673ffffffffffffffffffffffffffffffffffffffff1614151561112957fe5b611144670de0b6b3a76400008461161a90919063ffffffff16565b90506060604051908101604052808573ffffffffffffffffffffffffffffffffffffffff16815260200182815260200142815250600160008673ffffffffffffffffffffffffffffffffffffffff1673ffffffffffffffffffffffffffffffffffffffff16815260200190815260200160002060008201518160000160006101000a81548173ffffffffffffffffffffffffffffffffffffffff021916908373ffffffffffffffffffffffffffffffffffffffff160217905550602082015181600101556040820151816002015590505061122a8160035461151090919063ffffffff16565b600381905550611246600160045461151090919063ffffffff16565b600481905550600280548060010182816112609190611681565b9160005260206000209001600086909190916101000a81548173ffffffffffffffffffffffffffffffffffffffff021916908373ffffffffffffffffffffffffffffffffffffffff160217905550507f37e9308d0d750d43a2e5ef16b6d47b60b2741e12be41128ca3bec877db4f9dcb84604051808273ffffffffffffffffffffffffffffffffffffffff1673ffffffffffffffffffffffffffffffffffffffff16815260200191505060405180910390a150505050565b6000809054906101000a900473ffffffffffffffffffffffffffffffffffffffff1673ffffffffffffffffffffffffffffffffffffffff163373ffffffffffffffffffffffffffffffffffffffff1614151561137357600080fd5b600073ffffffffffffffffffffffffffffffffffffffff168173ffffffffffffffffffffffffffffffffffffffff16141515156113af57600080fd5b8073ffffffffffffffffffffffffffffffffffffffff166000809054906101000a900473ffffffffffffffffffffffffffffffffffffffff1673ffffffffffffffffffffffffffffffffffffffff167f8be0079c531659141344cd1fd0a4f28419497f9722a3daafe3b4186f6b6457e060405160405180910390a3806000806101000a81548173ffffffffffffffffffffffffffffffffffffffff021916908373ffffffffffffffffffffffffffffffffffffffff16021790555050565b600080828481151561147b57fe5b0490508091505092915050565b6000600a826040015142038360200151028115156114a257fe5b049050816000015173ffffffffffffffffffffffffffffffffffffffff166108fc829081150290604051600060405180830381858888f1935050505015156114e957600080fd5b428260400181815250505050565b600082821115151561150557fe5b818303905092915050565b600080828401905083811015151561152457fe5b8091505092915050565b60008060008090505b6002805490508160ff161015611613578373ffffffffffffffffffffffffffffffffffffffff1660028260ff1681548110151561157057fe5b906000526020600020900160009054906101000a900473ffffffffffffffffffffffffffffffffffffffff1673ffffffffffffffffffffffffffffffffffffffff1614156116065760028160ff168154811015156115ca57fe5b906000526020600020900160009054906101000a900473ffffffffffffffffffffffffffffffffffffffff16818060ff16905092509250611614565b8080600101915050611537565b5b50915091565b600080600084141561162f576000915061164e565b828402905082848281151561164057fe5b0414151561164a57fe5b8091505b5092915050565b81548183558181151161167c5781836000526020600020918201910161167b91906116ad565b5b505050565b8154818355818115116116a8578183600052602060002091820191016116a791906116ad565b5b505050565b6116cf91905b808211156116cb5760008160009055506001016116b3565b5090565b905600a165627a7a723058202caa4e74576749580b693752346679aa909f112b5b285e29960a71e4e1448ae10029",
  "source": "pragma solidity ^0.4.15;\n\n//import \"zeppelin-solidity/contracts/ownership/Ownable.sol\";\n//import \"zeppelin-solidity/contracts/math/SafeMath.sol\";\nimport './Ownable.sol';\nimport './SafeMath.sol';\n\n\ncontract PayRoll is Ownable {\n\n    using SafeMath for uint;\n\n    struct Employee{\n        address id;\n        uint salary;        // finney= 10^15 wei, ether= 10^18 wei\n        uint lastPayDay;\n    }\n\n    mapping(address=>Employee) public employees;\n    address[] employeeList;\n    uint constant payDuration = 10 seconds;\n\n    uint totalSalary=0;//总的薪水\n    uint totalEmployee=0;\n\n    event NewEmployee(\n        address employee\n    );\n\n    event UpdateEmployee(\n        address employee\n    );\n\n     event RemoveEmployee(\n        address employee\n    );\n\n    event NewFund(\n        uint balance\n    );\n\n\n     //存储employee信息改为map后，下面的函数不需要了。\n     //返回参数默认存在 memory中\n     // (Employee storage, uint) 这里定义的storage表示，返回的employee是指向storage的一个引用\n     function _findEmployee(address employeeId) private returns (address, uint){\n         for(var i=0;i<employeeList.length;i++){\n             if(employeeList[i]==employeeId){\n                 return (employeeList[i], i);\n             }\n         }\n     }\n\n\n\n\n     function _partialPay(Employee employee) private {\n            //除法会把小数抹掉，所以要先乘以salary后再除\n             uint pay=employee.salary *(now-employee.lastPayDay)/payDuration;\n             employee.id.transfer(pay);\n             employee.lastPayDay=now;\n     }\n\n\n     /*\n     使用 onlyBoss 这个 modifier之后，就不需要了\n        require(boss==msg.sender);\n\n     modifier onlyBoss{\n         require(msg.sender==boss);\n         _; //占位符，后续的代码会替换出现在这里\n     }*/\n\n\n     modifier employeeExist(address employeeId){\n         var e=employees[employeeId];\n         assert(e.id!=0x0);\n         _;\n     }\n\n\n\n\n\n\n    // 充值 ， 需要 向  它  转钱\n    function addFund() payable returns (uint){ //  payable    表示可以 接收  钱\n        NewFund(this.balance);\n        return this.balance;\n    }\n\n    // 初始化员工\n    function addEmployee(address employeeId, uint money) onlyOwner  {\n\n        var employee=employees[employeeId];\n\n        assert(employee.id==0x0);\n\n        var money_ether=money.mul(1 ether);\n\n        employees[employeeId]=Employee(employeeId, money_ether ,now);\n\n        totalSalary=totalSalary.add(money_ether);\n\n        totalEmployee=totalEmployee.add(1);\n\n        employeeList.push(employeeId);\n        // 触发 event\n        NewEmployee(employeeId);\n    }\n\n\n    function _checkEmployee(address employeeId) returns (uint salary, uint lastPayday /*返回命名参数*/){\n        var employee=employees[employeeId];\n\n        //返回值，2种方法：\n        //return (employee.salary, employee.lastPayDay);\n\n        salary=employee.salary;\n        lastPayday=employee.lastPayDay;\n    }\n\n\n    function checkEmployee(uint index) returns (address employeeId,uint salary, uint lastPayday /*返回命名参数*/){\n        if(index<0 ||index>=employeeList.length){\n            employeeId=0x0;\n            salary=0;\n            lastPayday=0;\n            return;\n        }\n\n        employeeId=employeeList[index];\n        (salary, lastPayday)=_checkEmployee(employeeId);\n    }\n\n\n    //更改员工地址\n    function changePaymentAddress(address oldEmployeeId, address newEmployeeId) onlyOwner employeeExist(oldEmployeeId){\n       var (oldsalary, oldLastPayday)=_checkEmployee(oldEmployeeId);\n       var (salary, lastPayday)=_checkEmployee(newEmployeeId);\n       assert(salary==0);//新的Employee应该不存在\n\n        removeEmployee(oldEmployeeId);//移除老地址，结清工资\n\n        addEmployee(newEmployeeId,oldsalary);//新地址，薪水还是原来的数目，结算日期是now\n\n    }\n\n\n\n\n    // 移除员工\n    function removeEmployee(address employeeId) onlyOwner employeeExist(employeeId){\n\n        var employee=employees[employeeId];\n\n        _partialPay(employee);\n        delete employees[employeeId];\n\n        totalSalary=totalSalary.sub(employee.salary);\n\n        totalEmployee=totalEmployee.sub(1);\n\n\n        var (employee_temp_address, index)=_findEmployee(employeeId);\n\n        assert(index>=0);//不存在就报错，虚拟机会 revert()\n\n        delete employeeList[index];\n        //填充刚才删除的空，把最后一个元素移动到刚才的位置\n        employeeList[index]=employeeList[employeeList.length-1];\n        employeeList.length-=1;// length -- 缩容\n          // 触发 event\n        RemoveEmployee(employeeId);\n\n    }\n\n    // 更新员工\n    function updateEmployee(address employeeId, uint salary) onlyOwner employeeExist(employeeId){\n\n       var employee=employees[employeeId];\n\n       _partialPay(employee);\n\n       var money_ether=salary * 1 ether;\n       var prev_salary=employee.salary;\n       employee.salary=money_ether;\n       employee.lastPayDay=now;\n\n        totalSalary=totalSalary.sub(prev_salary).add(money_ether);  //更新薪水，把原来的减去，新的薪水加上\n        UpdateEmployee(employeeId);\n    }\n\n\n\n    //计算剩余的钱，看看是否还够发工资，大于0就是还有余额\n    function calculateRunaway() returns (uint){\n        //这里每次都循环遍历，太消耗Gas，改为一个成员变量保存totalSalary\n\n        return this.balance.div(totalSalary==0?1:totalSalary);\n    }\n\n    function hasEnoughFund() returns (bool){\n        return calculateRunaway()>0; // 不要 带 this， 降低 gas消耗 ，  不带this,变为  jump 调用\n\n    }\n\n\n    function getPaid() employeeExist(msg.sender) constant returns (uint) {\n        var sender=msg.sender;\n        var employee=employees[sender];\n\n        // 这里使用局部变量， 减少 多余 的  计算 ， 节省   gas 。\n        uint nextPayDay=employee.lastPayDay.add(payDuration);\n\n        assert(nextPayDay < now); //效果等同的revert()\n\n        //employee是对map里面的对象的引用，所以这里可以直接更改该对象，跟数组查找返回的效果不一样\n        employee.lastPayDay=nextPayDay;\n        // 把 转钱的操作放到最后在，内部变量修改完后再给外部钱\n        employee.id.transfer(employee.salary);\n        return employee.salary;\n    }\n\n\n    function getInfo() returns (uint balance, uint runway, uint employeeCount) {\n        balance=this.balance;\n        runway=calculateRunaway();\n        employeeCount=totalEmployee;\n    }\n\n    function checkInfo() returns (uint balance, uint runway, uint employeeCount) {\n        balance = this.balance;\n        employeeCount = totalEmployee;\n\n        if (totalSalary > 0) {\n            runway = calculateRunaway();\n        }\n\n    }\n\n}",
  "sourcePath": "/Users/hqman/project/blockchain/Team-M/Lesson-6/assignment/contracts/PayRoll.sol",
  "compiler": {
    "name": "solc",
    "version": "0.4.19+commit.c4cbbb05.Emscripten.clang"
  },
  "schemaVersion": "2.0.0",
  "updatedAt": "2018-03-31T10:22:12.649Z"
}